{
  "contractName": "BlockchainDevsToken",
  "abi": [
    {
      "constant": true,
      "inputs": [],
      "name": "supply",
      "outputs": [
        {
          "name": "",
          "type": "uint256"
        }
      ],
      "payable": false,
      "stateMutability": "view",
      "type": "function"
    },
    {
      "constant": true,
      "inputs": [],
      "name": "name",
      "outputs": [
        {
          "name": "",
          "type": "string"
        }
      ],
      "payable": false,
      "stateMutability": "view",
      "type": "function"
    },
    {
      "constant": true,
      "inputs": [],
      "name": "teamTokenBonus",
      "outputs": [
        {
          "name": "",
          "type": "address"
        }
      ],
      "payable": false,
      "stateMutability": "view",
      "type": "function"
    },
    {
      "constant": true,
      "inputs": [],
      "name": "TOTAL_SOLD_TOKEN_SUPPLY_LIMIT",
      "outputs": [
        {
          "name": "",
          "type": "uint256"
        }
      ],
      "payable": false,
      "stateMutability": "view",
      "type": "function"
    },
    {
      "constant": true,
      "inputs": [],
      "name": "currentState",
      "outputs": [
        {
          "name": "",
          "type": "uint8"
        }
      ],
      "payable": false,
      "stateMutability": "view",
      "type": "function"
    },
    {
      "constant": true,
      "inputs": [],
      "name": "PRESALE_MAX_ETH",
      "outputs": [
        {
          "name": "",
          "type": "uint256"
        }
      ],
      "payable": false,
      "stateMutability": "view",
      "type": "function"
    },
    {
      "constant": true,
      "inputs": [],
      "name": "totalSupply",
      "outputs": [
        {
          "name": "",
          "type": "uint256"
        }
      ],
      "payable": false,
      "stateMutability": "view",
      "type": "function"
    },
    {
      "constant": true,
      "inputs": [],
      "name": "presaleSoldTokens",
      "outputs": [
        {
          "name": "",
          "type": "uint256"
        }
      ],
      "payable": false,
      "stateMutability": "view",
      "type": "function"
    },
    {
      "constant": true,
      "inputs": [],
      "name": "tokenManager",
      "outputs": [
        {
          "name": "",
          "type": "address"
        }
      ],
      "payable": false,
      "stateMutability": "view",
      "type": "function"
    },
    {
      "constant": true,
      "inputs": [],
      "name": "decimals",
      "outputs": [
        {
          "name": "",
          "type": "uint256"
        }
      ],
      "payable": false,
      "stateMutability": "view",
      "type": "function"
    },
    {
      "constant": true,
      "inputs": [],
      "name": "icoSoldTokens",
      "outputs": [
        {
          "name": "",
          "type": "uint256"
        }
      ],
      "payable": false,
      "stateMutability": "view",
      "type": "function"
    },
    {
      "constant": true,
      "inputs": [],
      "name": "PRESALE_PRICE",
      "outputs": [
        {
          "name": "",
          "type": "uint256"
        }
      ],
      "payable": false,
      "stateMutability": "view",
      "type": "function"
    },
    {
      "constant": true,
      "inputs": [],
      "name": "ICO_PRICE1",
      "outputs": [
        {
          "name": "",
          "type": "uint256"
        }
      ],
      "payable": false,
      "stateMutability": "view",
      "type": "function"
    },
    {
      "constant": true,
      "inputs": [
        {
          "name": "_owner",
          "type": "address"
        }
      ],
      "name": "balanceOf",
      "outputs": [
        {
          "name": "",
          "type": "uint256"
        }
      ],
      "payable": false,
      "stateMutability": "view",
      "type": "function"
    },
    {
      "constant": true,
      "inputs": [],
      "name": "DEVELOPERS_BONUS",
      "outputs": [
        {
          "name": "",
          "type": "uint256"
        }
      ],
      "payable": false,
      "stateMutability": "view",
      "type": "function"
    },
    {
      "constant": true,
      "inputs": [],
      "name": "TOTAL_SUPPLY",
      "outputs": [
        {
          "name": "",
          "type": "uint256"
        }
      ],
      "payable": false,
      "stateMutability": "view",
      "type": "function"
    },
    {
      "constant": true,
      "inputs": [],
      "name": "symbol",
      "outputs": [
        {
          "name": "",
          "type": "string"
        }
      ],
      "payable": false,
      "stateMutability": "view",
      "type": "function"
    },
    {
      "constant": true,
      "inputs": [],
      "name": "enableTransfers",
      "outputs": [
        {
          "name": "",
          "type": "bool"
        }
      ],
      "payable": false,
      "stateMutability": "view",
      "type": "function"
    },
    {
      "constant": true,
      "inputs": [],
      "name": "totalSoldTokens",
      "outputs": [
        {
          "name": "",
          "type": "uint256"
        }
      ],
      "payable": false,
      "stateMutability": "view",
      "type": "function"
    },
    {
      "constant": true,
      "inputs": [
        {
          "name": "_owner",
          "type": "address"
        },
        {
          "name": "_spender",
          "type": "address"
        }
      ],
      "name": "allowance",
      "outputs": [
        {
          "name": "",
          "type": "uint256"
        }
      ],
      "payable": false,
      "stateMutability": "view",
      "type": "function"
    },
    {
      "constant": true,
      "inputs": [],
      "name": "escrow",
      "outputs": [
        {
          "name": "",
          "type": "address"
        }
      ],
      "payable": false,
      "stateMutability": "view",
      "type": "function"
    },
    {
      "constant": true,
      "inputs": [],
      "name": "ICO_PRICE3",
      "outputs": [
        {
          "name": "",
          "type": "uint256"
        }
      ],
      "payable": false,
      "stateMutability": "view",
      "type": "function"
    },
    {
      "constant": true,
      "inputs": [],
      "name": "PRESALE_TOKEN_SUPPLY_LIMIT",
      "outputs": [
        {
          "name": "",
          "type": "uint256"
        }
      ],
      "payable": false,
      "stateMutability": "view",
      "type": "function"
    },
    {
      "constant": true,
      "inputs": [],
      "name": "ICO_PRICE2",
      "outputs": [
        {
          "name": "",
          "type": "uint256"
        }
      ],
      "payable": false,
      "stateMutability": "view",
      "type": "function"
    },
    {
      "inputs": [
        {
          "name": "_tokenManager",
          "type": "address"
        },
        {
          "name": "_escrow",
          "type": "address"
        },
        {
          "name": "_teamTokenBonus",
          "type": "address"
        }
      ],
      "payable": false,
      "stateMutability": "nonpayable",
      "type": "constructor"
    },
    {
      "payable": true,
      "stateMutability": "payable",
      "type": "fallback"
    },
    {
      "anonymous": false,
      "inputs": [
        {
          "indexed": true,
          "name": "owner",
          "type": "address"
        },
        {
          "indexed": false,
          "name": "value",
          "type": "uint256"
        }
      ],
      "name": "LogBuy",
      "type": "event"
    },
    {
      "anonymous": false,
      "inputs": [
        {
          "indexed": true,
          "name": "owner",
          "type": "address"
        },
        {
          "indexed": false,
          "name": "value",
          "type": "uint256"
        }
      ],
      "name": "LogBurn",
      "type": "event"
    },
    {
      "anonymous": false,
      "inputs": [
        {
          "indexed": true,
          "name": "_from",
          "type": "address"
        },
        {
          "indexed": true,
          "name": "_to",
          "type": "address"
        },
        {
          "indexed": false,
          "name": "_value",
          "type": "uint256"
        }
      ],
      "name": "Transfer",
      "type": "event"
    },
    {
      "anonymous": false,
      "inputs": [
        {
          "indexed": true,
          "name": "_owner",
          "type": "address"
        },
        {
          "indexed": true,
          "name": "_spender",
          "type": "address"
        },
        {
          "indexed": false,
          "name": "_value",
          "type": "uint256"
        }
      ],
      "name": "Approval",
      "type": "event"
    },
    {
      "constant": false,
      "inputs": [],
      "name": "buyTokens",
      "outputs": [],
      "payable": true,
      "stateMutability": "payable",
      "type": "function"
    },
    {
      "constant": false,
      "inputs": [],
      "name": "buyTokensPresale",
      "outputs": [],
      "payable": true,
      "stateMutability": "payable",
      "type": "function"
    },
    {
      "constant": false,
      "inputs": [],
      "name": "buyTokensICO",
      "outputs": [],
      "payable": true,
      "stateMutability": "payable",
      "type": "function"
    },
    {
      "constant": true,
      "inputs": [],
      "name": "getPrice",
      "outputs": [
        {
          "name": "",
          "type": "uint256"
        }
      ],
      "payable": false,
      "stateMutability": "view",
      "type": "function"
    },
    {
      "constant": false,
      "inputs": [
        {
          "name": "_nextState",
          "type": "uint8"
        }
      ],
      "name": "setState",
      "outputs": [],
      "payable": false,
      "stateMutability": "nonpayable",
      "type": "function"
    },
    {
      "constant": false,
      "inputs": [],
      "name": "withdrawEther",
      "outputs": [],
      "payable": false,
      "stateMutability": "nonpayable",
      "type": "function"
    },
    {
      "constant": false,
      "inputs": [
        {
          "name": "_to",
          "type": "address"
        },
        {
          "name": "_value",
          "type": "uint256"
        }
      ],
      "name": "transfer",
      "outputs": [
        {
          "name": "",
          "type": "bool"
        }
      ],
      "payable": false,
      "stateMutability": "nonpayable",
      "type": "function"
    },
    {
      "constant": false,
      "inputs": [
        {
          "name": "_from",
          "type": "address"
        },
        {
          "name": "_to",
          "type": "address"
        },
        {
          "name": "_value",
          "type": "uint256"
        }
      ],
      "name": "transferFrom",
      "outputs": [
        {
          "name": "",
          "type": "bool"
        }
      ],
      "payable": false,
      "stateMutability": "nonpayable",
      "type": "function"
    },
    {
      "constant": false,
      "inputs": [
        {
          "name": "_spender",
          "type": "address"
        },
        {
          "name": "_value",
          "type": "uint256"
        }
      ],
      "name": "approve",
      "outputs": [
        {
          "name": "",
          "type": "bool"
        }
      ],
      "payable": false,
      "stateMutability": "nonpayable",
      "type": "function"
    },
    {
      "constant": false,
      "inputs": [
        {
          "name": "_mgr",
          "type": "address"
        }
      ],
      "name": "setTokenManager",
      "outputs": [],
      "payable": false,
      "stateMutability": "nonpayable",
      "type": "function"
    }
  ],
  "bytecode": "0x606060405260006002556000600360006101000a81548160ff0219169083600581111561002857fe5b02179055506000600360016101000a81548160ff0219169083151502179055506000600360026101000a81548173ffffffffffffffffffffffffffffffffffffffff021916908373ffffffffffffffffffffffffffffffffffffffff1602179055506000600460006101000a81548173ffffffffffffffffffffffffffffffffffffffff021916908373ffffffffffffffffffffffffffffffffffffffff1602179055506000600560006101000a81548173ffffffffffffffffffffffffffffffffffffffff021916908373ffffffffffffffffffffffffffffffffffffffff160217905550600060065560006007556000600855341561012857600080fd5b604051606080611d8c83398101604052808051906020019091908051906020019091908051906020019091905050600083600560006101000a81548173ffffffffffffffffffffffffffffffffffffffff021916908373ffffffffffffffffffffffffffffffffffffffff16021790555081600360026101000a81548173ffffffffffffffffffffffffffffffffffffffff021916908373ffffffffffffffffffffffffffffffffffffffff16021790555082600460006101000a81548173ffffffffffffffffffffffffffffffffffffffff021916908373ffffffffffffffffffffffffffffffffffffffff1602179055506af8277896582678ac0000009050806000808473ffffffffffffffffffffffffffffffffffffffff1673ffffffffffffffffffffffffffffffffffffffff16815260200190815260200160002060008282540192505081905550806002600082825401925050819055506a31a17e847807b1bc000000670de0b6b3a76400006107d061753002021415156102ab57fe5b6b033b2e3c9fd0803ce8000000801415156102c257fe5b50505050611ab7806102d56000396000f3006060604052600436106101ac576000357c0100000000000000000000000000000000000000000000000000000000900463ffffffff168063047fc9aa146101b657806306fdde03146101df578063085c1cee1461026d578063095ea7b3146102c25780630acdd69f1461031c5780630c3f6acf146103455780631350acbd1461037c57806318160ddd146103a55780631d511879146103ce57806323b872dd146103d8578063269f96c9146104515780632a709b141461047a578063313ce567146104cf57806343d42780146104f857806356de96db1461052157806362dc6e21146105475780636cb5291e1461057057806370a08231146105995780637362377b146105e6578063737732b2146105fb5780637cb2b79c14610624578063902d55a51461065d57806395d89b411461068657806398d5fdca14610714578063a9059cbb1461073d578063af35c6c714610797578063d0febe4c146107c4578063d7b91bcc146107ce578063d7ca9949146107d8578063dd62ed3e14610801578063e2fdcc171461086d578063e7cf7b34146108c2578063e92e5f03146108eb578063f88607e414610914575b6101b461093d565b005b34156101c157600080fd5b6101c96109e7565b6040518082815260200191505060405180910390f35b34156101ea57600080fd5b6101f26109ed565b6040518080602001828103825283818151815260200191508051906020019080838360005b83811015610232578082015181840152602081019050610217565b50505050905090810190601f16801561025f5780820380516001836020036101000a031916815260200191505b509250505060405180910390f35b341561027857600080fd5b610280610a26565b604051808273ffffffffffffffffffffffffffffffffffffffff1673ffffffffffffffffffffffffffffffffffffffff16815260200191505060405180910390f35b34156102cd57600080fd5b610302600480803573ffffffffffffffffffffffffffffffffffffffff16906020019091908035906020019091905050610a4c565b604051808215151515815260200191505060405180910390f35b341561032757600080fd5b61032f610a7b565b6040518082815260200191505060405180910390f35b341561035057600080fd5b610358610a8b565b6040518082600581111561036857fe5b60ff16815260200191505060405180910390f35b341561038757600080fd5b61038f610a9e565b6040518082815260200191505060405180910390f35b34156103b057600080fd5b6103b8610aa4565b6040518082815260200191505060405180910390f35b6103d6610aae565b005b34156103e357600080fd5b610437600480803573ffffffffffffffffffffffffffffffffffffffff1690602001909190803573ffffffffffffffffffffffffffffffffffffffff16906020019091908035906020019091905050610bf4565b604051808215151515815260200191505060405180910390f35b341561045c57600080fd5b610464610c25565b6040518082815260200191505060405180910390f35b341561048557600080fd5b61048d610c2b565b604051808273ffffffffffffffffffffffffffffffffffffffff1673ffffffffffffffffffffffffffffffffffffffff16815260200191505060405180910390f35b34156104da57600080fd5b6104e2610c51565b6040518082815260200191505060405180910390f35b341561050357600080fd5b61050b610c56565b6040518082815260200191505060405180910390f35b341561052c57600080fd5b610545600480803560ff16906020019091905050610c5c565b005b341561055257600080fd5b61055a610d53565b6040518082815260200191505060405180910390f35b341561057b57600080fd5b610583610d59565b6040518082815260200191505060405180910390f35b34156105a457600080fd5b6105d0600480803573ffffffffffffffffffffffffffffffffffffffff16906020019091905050610d5f565b6040518082815260200191505060405180910390f35b34156105f157600080fd5b6105f9610da7565b005b341561060657600080fd5b61060e610e9f565b6040518082815260200191505060405180910390f35b341561062f57600080fd5b61065b600480803573ffffffffffffffffffffffffffffffffffffffff16906020019091905050610eae565b005b341561066857600080fd5b610670610f4e565b6040518082815260200191505060405180910390f35b341561069157600080fd5b610699610f5e565b6040518080602001828103825283818151815260200191508051906020019080838360005b838110156106d95780820151818401526020810190506106be565b50505050905090810190601f1680156107065780820380516001836020036101000a031916815260200191505b509250505060405180910390f35b341561071f57600080fd5b610727610f97565b6040518082815260200191505060405180910390f35b341561074857600080fd5b61077d600480803573ffffffffffffffffffffffffffffffffffffffff16906020019091908035906020019091905050611018565b604051808215151515815260200191505060405180910390f35b34156107a257600080fd5b6107aa611047565b604051808215151515815260200191505060405180910390f35b6107cc61093d565b005b6107d661105a565b005b34156107e357600080fd5b6107eb6111a0565b6040518082815260200191505060405180910390f35b341561080c57600080fd5b610857600480803573ffffffffffffffffffffffffffffffffffffffff1690602001909190803573ffffffffffffffffffffffffffffffffffffffff169060200190919050506111a6565b6040518082815260200191505060405180910390f35b341561087857600080fd5b61088061122d565b604051808273ffffffffffffffffffffffffffffffffffffffff1673ffffffffffffffffffffffffffffffffffffffff16815260200191505060405180910390f35b34156108cd57600080fd5b6108d5611253565b6040518082815260200191505060405180910390f35b34156108f657600080fd5b6108fe611259565b6040518082815260200191505060405180910390f35b341561091f57600080fd5b61092761126d565b6040518082815260200191505060405180910390f35b6002600581111561094a57fe5b600360009054906101000a900460ff16600581111561096557fe5b148061099657506004600581111561097957fe5b600360009054906101000a900460ff16600581111561099457fe5b145b15156109a157600080fd5b600260058111156109ae57fe5b600360009054906101000a900460ff1660058111156109c957fe5b14156109dc576109d7610aae565b6109e5565b6109e461105a565b5b565b60025481565b6040805190810160405280601481526020017f426c6f636b636861696e4465767320546f6b656e00000000000000000000000081525081565b600360029054906101000a900473ffffffffffffffffffffffffffffffffffffffff1681565b6000600360019054906101000a900460ff161515610a6957600080fd5b610a738383611273565b905092915050565b6b033b2e3c9fd0803ce800000081565b600360009054906101000a900460ff1681565b6107d081565b6000600254905090565b60006002600360009054906101000a900460ff166005811115610acd57fe5b816005811115610ad957fe5b141515610ae557600080fd5b670de0b6b3a76400003410151515610afc57600080fd5b61753034029150670de0b6b3a76400006107d06175300202826006540111151515610b2657600080fd5b816000803373ffffffffffffffffffffffffffffffffffffffff1673ffffffffffffffffffffffffffffffffffffffff168152602001908152602001600020600082825401925050819055508160026000828254019250508190555081600660008282540192505081905550816008600082825401925050819055503373ffffffffffffffffffffffffffffffffffffffff167f4f79409f494e81c38036d80aa8a6507c2cb08d90bfb2fead5519447646b3497e836040518082815260200191505060405180910390a25050565b6000600360019054906101000a900460ff161515610c1157600080fd5b610c1c8484846113fa565b90509392505050565b60065481565b600560009054906101000a900473ffffffffffffffffffffffffffffffffffffffff1681565b601281565b60075481565b600560009054906101000a900473ffffffffffffffffffffffffffffffffffffffff1673ffffffffffffffffffffffffffffffffffffffff163373ffffffffffffffffffffffffffffffffffffffff16141515610cb857600080fd5b600580811115610cc457fe5b600360009054906101000a900460ff166005811115610cdf57fe5b14151515610cec57600080fd5b80600360006101000a81548160ff02191690836005811115610d0a57fe5b0217905550600580811115610d1b57fe5b600360009054906101000a900460ff166005811115610d3657fe5b14600360016101000a81548160ff02191690831515021790555050565b61753081565b616b6c81565b60008060008373ffffffffffffffffffffffffffffffffffffffff1673ffffffffffffffffffffffffffffffffffffffff168152602001908152602001600020549050919050565b600560009054906101000a900473ffffffffffffffffffffffffffffffffffffffff1673ffffffffffffffffffffffffffffffffffffffff163373ffffffffffffffffffffffffffffffffffffffff16141515610e0357600080fd5b60003073ffffffffffffffffffffffffffffffffffffffff16311115610e9d57600460009054906101000a900473ffffffffffffffffffffffffffffffffffffffff1673ffffffffffffffffffffffffffffffffffffffff166108fc3073ffffffffffffffffffffffffffffffffffffffff16319081150290604051600060405180830381858888f193505050501515610e9c57600080fd5b5b565b6af8277896582678ac00000081565b600560009054906101000a900473ffffffffffffffffffffffffffffffffffffffff1673ffffffffffffffffffffffffffffffffffffffff163373ffffffffffffffffffffffffffffffffffffffff16141515610f0a57600080fd5b80600560006101000a81548173ffffffffffffffffffffffffffffffffffffffff021916908373ffffffffffffffffffffffffffffffffffffffff16021790555050565b6b043355b53628a6b59400000081565b6040805190810160405280600381526020017f424454000000000000000000000000000000000000000000000000000000000081525081565b600060046005811115610fa657fe5b600360009054906101000a900460ff166005811115610fc157fe5b141561100f576aa56fa5b99019a5c80000006007541015610fe657616b6c9050611015565b6af8277896582678ac00000060075410156110055761668a9050611015565b6161a89050611015565b61753090505b90565b6000600360019054906101000a900460ff16151561103557600080fd5b61103f83836117ea565b905092915050565b600360019054906101000a900460ff1681565b60006004600360009054906101000a900460ff16600581111561107957fe5b81600581111561108557fe5b14151561109157600080fd5b662386f26fc1000034101515156110a757600080fd5b6110af610f97565b340291506b033b2e3c9fd0803ce80000008260085401111515156110d257600080fd5b816000803373ffffffffffffffffffffffffffffffffffffffff1673ffffffffffffffffffffffffffffffffffffffff168152602001908152602001600020600082825401925050819055508160026000828254019250508190555081600760008282540192505081905550816008600082825401925050819055503373ffffffffffffffffffffffffffffffffffffffff167f4f79409f494e81c38036d80aa8a6507c2cb08d90bfb2fead5519447646b3497e836040518082815260200191505060405180910390a25050565b60085481565b6000600160008473ffffffffffffffffffffffffffffffffffffffff1673ffffffffffffffffffffffffffffffffffffffff16815260200190815260200160002060008373ffffffffffffffffffffffffffffffffffffffff1673ffffffffffffffffffffffffffffffffffffffff16815260200190815260200160002054905092915050565b600460009054906101000a900473ffffffffffffffffffffffffffffffffffffffff1681565b6161a881565b670de0b6b3a76400006107d0617530020281565b61668a81565b6000808214806112ff57506000600160003373ffffffffffffffffffffffffffffffffffffffff1673ffffffffffffffffffffffffffffffffffffffff16815260200190815260200160002060008573ffffffffffffffffffffffffffffffffffffffff1673ffffffffffffffffffffffffffffffffffffffff16815260200190815260200160002054145b151561130a57600080fd5b81600160003373ffffffffffffffffffffffffffffffffffffffff1673ffffffffffffffffffffffffffffffffffffffff16815260200190815260200160002060008573ffffffffffffffffffffffffffffffffffffffff1673ffffffffffffffffffffffffffffffffffffffff168152602001908152602001600020819055508273ffffffffffffffffffffffffffffffffffffffff163373ffffffffffffffffffffffffffffffffffffffff167f8c5be1e5ebec7d5bd14f71427d1e84f3dd0314c0f7b2291e5b200ac8c7c3b925846040518082815260200191505060405180910390a36001905092915050565b6000816000808673ffffffffffffffffffffffffffffffffffffffff1673ffffffffffffffffffffffffffffffffffffffff168152602001908152602001600020541015151561144957600080fd5b81600160008673ffffffffffffffffffffffffffffffffffffffff1673ffffffffffffffffffffffffffffffffffffffff16815260200190815260200160002060003373ffffffffffffffffffffffffffffffffffffffff1673ffffffffffffffffffffffffffffffffffffffff16815260200190815260200160002054101515156114d457600080fd5b6000808473ffffffffffffffffffffffffffffffffffffffff1673ffffffffffffffffffffffffffffffffffffffff16815260200190815260200160002054826000808673ffffffffffffffffffffffffffffffffffffffff1673ffffffffffffffffffffffffffffffffffffffff168152602001908152602001600020540111151561156057600080fd5b6115a86000808573ffffffffffffffffffffffffffffffffffffffff1673ffffffffffffffffffffffffffffffffffffffff1681526020019081526020016000205483611a48565b6000808573ffffffffffffffffffffffffffffffffffffffff1673ffffffffffffffffffffffffffffffffffffffff168152602001908152602001600020819055506116326000808673ffffffffffffffffffffffffffffffffffffffff1673ffffffffffffffffffffffffffffffffffffffff1681526020019081526020016000205483611a72565b6000808673ffffffffffffffffffffffffffffffffffffffff1673ffffffffffffffffffffffffffffffffffffffff168152602001908152602001600020819055506116fa600160008673ffffffffffffffffffffffffffffffffffffffff1673ffffffffffffffffffffffffffffffffffffffff16815260200190815260200160002060003373ffffffffffffffffffffffffffffffffffffffff1673ffffffffffffffffffffffffffffffffffffffff1681526020019081526020016000205483611a72565b600160008673ffffffffffffffffffffffffffffffffffffffff1673ffffffffffffffffffffffffffffffffffffffff16815260200190815260200160002060003373ffffffffffffffffffffffffffffffffffffffff1673ffffffffffffffffffffffffffffffffffffffff168152602001908152602001600020819055508273ffffffffffffffffffffffffffffffffffffffff168473ffffffffffffffffffffffffffffffffffffffff167fddf252ad1be2c89b69c2b068fc378daa952ba7f163c4a11628f55a4df523b3ef846040518082815260200191505060405180910390a3600190509392505050565b6000816000803373ffffffffffffffffffffffffffffffffffffffff1673ffffffffffffffffffffffffffffffffffffffff168152602001908152602001600020541015151561183957600080fd5b6000808473ffffffffffffffffffffffffffffffffffffffff1673ffffffffffffffffffffffffffffffffffffffff16815260200190815260200160002054826000808673ffffffffffffffffffffffffffffffffffffffff1673ffffffffffffffffffffffffffffffffffffffff16815260200190815260200160002054011115156118c557600080fd5b61190d6000803373ffffffffffffffffffffffffffffffffffffffff1673ffffffffffffffffffffffffffffffffffffffff1681526020019081526020016000205483611a72565b6000803373ffffffffffffffffffffffffffffffffffffffff1673ffffffffffffffffffffffffffffffffffffffff168152602001908152602001600020819055506119976000808573ffffffffffffffffffffffffffffffffffffffff1673ffffffffffffffffffffffffffffffffffffffff1681526020019081526020016000205483611a48565b6000808573ffffffffffffffffffffffffffffffffffffffff1673ffffffffffffffffffffffffffffffffffffffff168152602001908152602001600020819055508273ffffffffffffffffffffffffffffffffffffffff163373ffffffffffffffffffffffffffffffffffffffff167fddf252ad1be2c89b69c2b068fc378daa952ba7f163c4a11628f55a4df523b3ef846040518082815260200191505060405180910390a36001905092915050565b6000808284019050838110158015611a605750828110155b1515611a6857fe5b8091505092915050565b6000828211151515611a8057fe5b8183039050929150505600a165627a7a72305820b50ce901249c769a9a8c0c4aa2d28a702287857c5afbd0ffcf038c4c975fafda0029",
  "source": "pragma solidity ^0.4.16;\r\n\r\ncontract SafeMath {\r\n    function safeMul(uint a, uint b) internal returns (uint) {\r\n          uint c = a * b;\r\n          assert(a == 0 || c / a == b);\r\n          return c;\r\n    }\r\n\r\n     function safeSub(uint a, uint b) internal returns (uint) {\r\n          assert(b <= a);\r\n          return a - b;\r\n     }\r\n\r\n     function safeAdd(uint a, uint b) internal returns (uint) {\r\n          uint c = a + b;\r\n          assert(c>=a && c>=b);\r\n          return c;\r\n     }\r\n}\r\n\r\n// Standard token interface (ERC 20)\r\n// https://github.com/ethereum/EIPs/issues/20\r\ncontract Token is SafeMath {\r\n     // Functions:\r\n     /// @return total amount of tokens\r\n     function totalSupply() constant returns (uint256 supply);\r\n\r\n     /// @param _owner The address from which the balance will be retrieved\r\n     /// @return The balance\r\n     function balanceOf(address _owner) constant returns (uint256 balance);\r\n\r\n     /// @notice send `_value` token to `_to` from `msg.sender`\r\n     /// @param _to The address of the recipient\r\n     /// @param _value The amount of token to be transferred\r\n     function transfer(address _to, uint256 _value) returns(bool);\r\n\r\n     /// @notice send `_value` token to `_to` from `_from` on the condition it is approved by `_from`\r\n     /// @param _from The address of the sender\r\n     /// @param _to The address of the recipient\r\n     /// @param _value The amount of token to be transferred\r\n     /// @return Whether the transfer was successful or not\r\n     function transferFrom(address _from, address _to, uint256 _value) returns(bool);\r\n\r\n     /// @notice `msg.sender` approves `_addr` to spend `_value` tokens\r\n     /// @param _spender The address of the account able to transfer the tokens\r\n     /// @param _value The amount of wei to be approved for transfer\r\n     /// @return Whether the approval was successful or not\r\n     function approve(address _spender, uint256 _value) returns (bool success);\r\n\r\n     /// @param _owner The address of the account owning tokens\r\n     /// @param _spender The address of the account able to transfer the tokens\r\n     /// @return Amount of remaining tokens allowed to spent\r\n     function allowance(address _owner, address _spender) constant returns (uint256 remaining);\r\n\r\n     // Events:\r\n     event Transfer(address indexed _from, address indexed _to, uint256 _value);\r\n     event Approval(address indexed _owner, address indexed _spender, uint256 _value);\r\n}\r\n\r\ncontract StdToken is Token {\r\n     // Fields:\r\n     mapping(address => uint256) balances;\r\n     mapping (address => mapping (address => uint256)) allowed;\r\n     uint public supply = 0;\r\n\r\n     // Functions:\r\n     function transfer(address _to, uint256 _value) returns(bool) {\r\n          require(balances[msg.sender] >= _value);\r\n          require(balances[_to] + _value > balances[_to]);\r\n\r\n          balances[msg.sender] = safeSub(balances[msg.sender],_value);\r\n          balances[_to] = safeAdd(balances[_to],_value);\r\n\r\n          Transfer(msg.sender, _to, _value);\r\n          return true;\r\n     }\r\n\r\n     function transferFrom(address _from, address _to, uint256 _value) returns(bool){\r\n          require(balances[_from] >= _value);\r\n          require(allowed[_from][msg.sender] >= _value);\r\n          require(balances[_to] + _value > balances[_to]);\r\n\r\n          balances[_to] = safeAdd(balances[_to],_value);\r\n          balances[_from] = safeSub(balances[_from],_value);\r\n          allowed[_from][msg.sender] = safeSub(allowed[_from][msg.sender],_value);\r\n\r\n          Transfer(_from, _to, _value);\r\n          return true;\r\n     }\r\n\r\n     function totalSupply() constant returns (uint256) {\r\n          return supply;\r\n     }\r\n\r\n     function balanceOf(address _owner) constant returns (uint256) {\r\n          return balances[_owner];\r\n     }\r\n\r\n     function approve(address _spender, uint256 _value) returns (bool) {\r\n          // To change the approve amount you first have to reduce the addresses`\r\n          //  allowance to zero by calling `approve(_spender, 0)` if it is not\r\n          //  already 0 to mitigate the race condition described here:\r\n          //  https://github.com/ethereum/EIPs/issues/20#issuecomment-263524729\r\n          require((_value == 0) || (allowed[msg.sender][_spender] == 0));\r\n\r\n          allowed[msg.sender][_spender] = _value;\r\n          Approval(msg.sender, _spender, _value);\r\n\r\n          return true;\r\n     }\r\n\r\n     function allowance(address _owner, address _spender) constant returns (uint256) {\r\n          return allowed[_owner][_spender];\r\n     }\r\n}\r\n\r\ncontract BlockchainDevsToken is StdToken\r\n{\r\n/// Fields:\r\n    string public constant name = \"BlockchainDevs Token\";\r\n    string public constant symbol = \"BDT\";\r\n    uint public constant decimals = 18;\r\n\r\n    // this includes DEVELOPERS_BONUS\r\n    uint public constant TOTAL_SUPPLY = 1300000000 * (1 ether / 1 wei);\r\n    uint public constant DEVELOPERS_BONUS = 300000000 * (1 ether / 1 wei);\r\n\r\n    uint public constant PRESALE_PRICE = 30000;  // per 1 Ether\r\n    uint public constant PRESALE_MAX_ETH = 2000;\r\n    // 60 mln tokens sold during presale\r\n    uint public constant PRESALE_TOKEN_SUPPLY_LIMIT = PRESALE_PRICE * PRESALE_MAX_ETH * (1 ether / 1 wei);\r\n\r\n    uint public constant ICO_PRICE1 = 27500;     // per 1 Ether\r\n    uint public constant ICO_PRICE2 = 26250;     // per 1 Ether\r\n    uint public constant ICO_PRICE3 = 25000;     // per 1 Ether\r\n\r\n    // 1bln - this includes presale tokens\r\n    uint public constant TOTAL_SOLD_TOKEN_SUPPLY_LIMIT = 1000000000 * (1 ether / 1 wei);\r\n\r\n    enum State{\r\n       Init,\r\n       Paused,\r\n\r\n       PresaleRunning,\r\n       PresaleFinished,\r\n\r\n       ICORunning,\r\n       ICOFinished\r\n    }\r\n\r\n    State public currentState = State.Init;\r\n    bool public enableTransfers = false;\r\n\r\n    address public teamTokenBonus = 0;\r\n\r\n    // Gathered funds can be withdrawn only to escrow's address.\r\n    address public escrow = 0;\r\n\r\n    // Token manager has exclusive priveleges to call administrative\r\n    // functions on this contract.\r\n    address public tokenManager = 0;\r\n\r\n    uint public presaleSoldTokens = 0;\r\n    uint public icoSoldTokens = 0;\r\n    uint public totalSoldTokens = 0;\r\n\r\n/// Modifiers:\r\n    modifier onlyTokenManager()\r\n    {\r\n        require(msg.sender==tokenManager); \r\n        _; \r\n    }\r\n\r\n    modifier onlyInState(State state)\r\n    {\r\n        require(state==currentState); \r\n        _; \r\n    }\r\n\r\n/// Events:\r\n    event LogBuy(address indexed owner, uint value);\r\n    event LogBurn(address indexed owner, uint value);\r\n\r\n/// Functions:\r\n    /// @dev Constructor\r\n    /// @param _tokenManager Token manager address.\r\n    function BlockchainDevsToken(address _tokenManager, address _escrow, address _teamTokenBonus) \r\n    {\r\n        tokenManager = _tokenManager;\r\n        teamTokenBonus = _teamTokenBonus;\r\n        escrow = _escrow;\r\n\r\n        // send team bonus immediately\r\n        uint teamBonus = DEVELOPERS_BONUS;\r\n        balances[_teamTokenBonus] += teamBonus;\r\n        supply+= teamBonus;\r\n\r\n        assert(PRESALE_TOKEN_SUPPLY_LIMIT==60000000 * (1 ether / 1 wei));\r\n        assert(TOTAL_SOLD_TOKEN_SUPPLY_LIMIT==1000000000 * (1 ether / 1 wei));\r\n    }\r\n\r\n    function buyTokens() public payable\r\n    {\r\n        require(currentState==State.PresaleRunning || currentState==State.ICORunning);\r\n\r\n        if(currentState==State.PresaleRunning){\r\n            return buyTokensPresale();\r\n        }else{\r\n            return buyTokensICO();\r\n        }\r\n    }\r\n\r\n    function buyTokensPresale() public payable onlyInState(State.PresaleRunning)\r\n    {\r\n        // min - 1 ETH\r\n        require(msg.value >= (1 ether / 1 wei));\r\n        uint newTokens = msg.value * PRESALE_PRICE;\r\n\r\n        require(presaleSoldTokens + newTokens <= PRESALE_TOKEN_SUPPLY_LIMIT);\r\n\r\n        balances[msg.sender] += newTokens;\r\n        supply+= newTokens;\r\n        presaleSoldTokens+= newTokens;\r\n        totalSoldTokens+= newTokens;\r\n\r\n        LogBuy(msg.sender, newTokens);\r\n    }\r\n\r\n    function buyTokensICO() public payable onlyInState(State.ICORunning)\r\n    {\r\n        // min - 0.01 ETH\r\n        require(msg.value >= ((1 ether / 1 wei) / 100));\r\n        uint newTokens = msg.value * getPrice();\r\n\r\n        require(totalSoldTokens + newTokens <= TOTAL_SOLD_TOKEN_SUPPLY_LIMIT);\r\n\r\n        balances[msg.sender] += newTokens;\r\n        supply+= newTokens;\r\n        icoSoldTokens+= newTokens;\r\n        totalSoldTokens+= newTokens;\r\n\r\n        LogBuy(msg.sender, newTokens);\r\n    }\r\n\r\n    function getPrice()constant returns(uint)\r\n    {\r\n        if(currentState==State.ICORunning){\r\n             if(icoSoldTokens<(200000000 * (1 ether / 1 wei))){\r\n                  return ICO_PRICE1;\r\n             }\r\n             \r\n             if(icoSoldTokens<(300000000 * (1 ether / 1 wei))){\r\n                  return ICO_PRICE2;\r\n             }\r\n\r\n             return ICO_PRICE3;\r\n        }else{\r\n             return PRESALE_PRICE;\r\n        }\r\n    }\r\n\r\n    function setState(State _nextState) public onlyTokenManager\r\n    {\r\n        //setState() method call shouldn't be entertained after ICOFinished\r\n        require(currentState != State.ICOFinished);\r\n        \r\n        currentState = _nextState;\r\n        // enable/disable transfers\r\n        //enable transfers only after ICOFinished, disable otherwise\r\n        enableTransfers = (currentState==State.ICOFinished);\r\n    }\r\n\r\n    function withdrawEther() public onlyTokenManager\r\n    {\r\n        if(this.balance > 0) \r\n        {\r\n            require(escrow.send(this.balance));\r\n        }\r\n    }\r\n\r\n/// Overrides:\r\n    function transfer(address _to, uint256 _value) returns(bool){\r\n        require(enableTransfers);\r\n        return super.transfer(_to,_value);\r\n    }\r\n\r\n    function transferFrom(address _from, address _to, uint256 _value) returns(bool){\r\n        require(enableTransfers);\r\n        return super.transferFrom(_from,_to,_value);\r\n    }\r\n\r\n    function approve(address _spender, uint256 _value) returns (bool) {\r\n        require(enableTransfers);\r\n        return super.approve(_spender,_value);\r\n    }\r\n\r\n/// Setters/getters\r\n    function setTokenManager(address _mgr) public onlyTokenManager\r\n    {\r\n        tokenManager = _mgr;\r\n    }\r\n\r\n    // Default fallback function\r\n    function() payable \r\n    {\r\n        buyTokens();\r\n    }\r\n}",
  "sourcePath": "D:\\COLLEGE\\second-year\\sem-4\\ico-launcher\\main\\contracts\\BlockchainDevsToken.sol",
  "compiler": {
    "name": "solc",
    "version": "0.4.21+commit.dfe3193c.Emscripten.clang"
  },
  "schemaVersion": "2.0.0",
  "updatedAt": "2018-04-11T21:14:47.108Z"
}